:100000000C945F000C941C040C9449040C9487001D
:100010000C9487000C9487000C9487000C94870044
:100020000C9487000C9487000C9487000C94870034
:100030000C9487000C94D5030C9487000C948700D3
:100040000C940E050C9487000C94B4080C94E608EC
:100050000C9487000C9487000C9487000C94870004
:100060000C9487000C948700000000080002010037
:100070000003040700000000000000000102040863
:100080001020408001020408102001020408102002
:10009000040404040404040402020202020203032E
:1000A0000303030300000000250028002B000000CC
:1000B0000000240027002A00D0011609EE011124B7
:1000C0001FBECFEFD8E0DEBFCDBF11E0A0E0B1E0B2
:1000D000E8E1FEE102C005900D92A038B107D9F722
:1000E00022E0A0E8B1E001C01D92A835B207E1F717
:1000F00010E0CCEBD0E004C02297FE010E943E0C41
:10010000C83BD107C9F70E949F0A0C94FF0E0C94BC
:10011000000081E08093860110928801109287018F
:1001200060E088E00C94D804809186018823F9F07F
:1001300020918701309188018091080190910901F7
:10014000281739075CF061E088E00E94D80410921B
:10015000880110928701109286010895809187018D
:10016000909188010196909388018093870108956A
:1001700089E891E00E94D1068FE891E00E94D106C3
:1001800085E991E00E94D1068BE991E00E94D106B9
:1001900081EA91E00C94D10626E040E052EC61E067
:1001A00070E087EB91E00E943C0A6FE071E087EB22
:1001B00091E00E94690661E088E00E949F0441E0AE
:1001C00050E069E870E080E00E94FC0380910A0141
:1001D00090910B0120E12093810010928000AA27CA
:1001E00097FDA095BA2F33E0880F991FAA1FBB1F58
:1001F0003A95D1F7009721E0A207B10520F421E05C
:100200002093A70142C0009728E0A207B10558F447
:1002100022E02093A70123E0B695A79597958795AF
:100220002A95D1F732C0009720E4A207B10558F40F
:1002300023E02093A701F6E0B695A79597958795BB
:10024000FA95D1F722C00097A10521E0B20740F44A
:1002500024E02093A701892F9A2FAB2FBB2715C02D
:100260000097A10524E0B20758F425E02093A701E8
:100270007AE0B695A795979587957A95D1F705C0B9
:1002800085E08093A7018FEF9FEF9093A901809362
:10029000A8018091A8019091A90190938700809373
:1002A00086008091A70180618093810080910A017E
:1002B00090910B01AA2797FDA095BA2F0097A10551
:1002C000B10509F463C063E0880F991FAA1FBB1F23
:1002D0006A95D1F7009721E0A207B10520F421E04B
:1002E0002093A70142C0009728E0A207B10558F467
:1002F00022E02093A70153E0B695A795979587959F
:100300005A95D1F732C0009720E4A207B10558F4FE
:1003100023E02093A70146E0B695A795979587958A
:100320004A95D1F722C00097A10521E0B20740F419
:1003300024E02093A701892F9A2FAB2FBB2715C04C
:100340000097A10524E0B20758F425E02093A70107
:100350002AE0B695A795979587952A95D1F705C078
:1003600085E08093A7018FEF9FEF9093A901809381
:10037000A8018091A8019091A90190938700809392
:1003800086008091A70180618093810084E990E0DC
:1003900090930D0180930C0181E080936F0008958C
:1003A00060E671E081EA91E00E943F0760E671E05B
:1003B0008BE991E00E943F0760E671E085E991E0FA
:1003C0000E943F0760E671E08FE891E00E943F07DE
:1003D00060E671E089E891E00C943F070C94B80066
:1003E0001F93CF93DF93CDB7DEB72C970FB6F8945A
:1003F000DEBF0FBECDBF8EE00E94EA058A3C9F4F54
:10040000A4F08EE00E94EA0567E370E00E94D30B3F
:10041000882777FD8095982F0E94470B20E030E0D9
:1004200040E05FE30E94B00A13C08EE00E94EA053C
:1004300067E370E00E94D30B882777FD8095982FA3
:100440000E94470B20E030E040E05FE30E94AF0AEB
:100450000E94140B4AE0469F9001479F300D1124E3
:100460003093830120938201209182013091830196
:100470008091840190918501820F931F9093850153
:1004800080938401809106019091070101969093D9
:10049000070180930601809106019091070184363F
:1004A00091050CF471C080918401909185018D3982
:1004B0009F4FE4F0809184019091850164E670E0A3
:1004C0000E94D30BCB012AE0289FB001299F700D19
:1004D0001124882777FD8095982F0E94470B20E0F4
:1004E00030E040E05FE30E94B00A1BC080918401CD
:1004F0009091850164E670E00E94D30BCB012AE065
:10050000289FB001299F700D1124882777FD8095C1
:10051000982F0E94470B20E030E040E05FE30E940C
:10052000AF0A0E94140B2AE030E040E050E00E9445
:10053000090C3093850120938401609184017091AE
:1005400085014AE0CE0107960E94840763E371E0CB
:10055000CE0101960E943F07BE01695F7F4FCE0129
:1005600001960E94EF07BC018FE891E00E945507B9
:10057000CE0101960E94D106CE0107960E94D106B7
:10058000109207011092060169E871E08FE891E08E
:100590000E94320881110AC06FE871E089E891E099
:1005A0000E94550781E08093800102C01092800173
:1005B00087EB91E00E94590918161906ACF54AE03C
:1005C00067EB71E0CE0101960E94A906BE016F5F44
:1005D0007F4F81EA91E00E945507CE0101960E946B
:1005E000D10661EA71E087EB91E00E94570627E0AF
:1005F00030E040E050E061EA71E0CE0101960E94F7
:10060000640863E371E0CE0101960E944508182F4B
:10061000CE0101960E94D106112331F061EA71E00A
:100620008BE991E00E94550765E971E08BE991E063
:100630000E94320881110AC06BE971E085E991E0FE
:100640000E94550781E08093810102C010928101D0
:1006500027E030E040E050E065E971E0CE0101962E
:100660000E94640863E371E0CE0101960E94450890
:10067000882319F01091810101C010E0CE0101968C
:100680000E94D1061123A9F129E030E047E050E0B3
:1006900065E971E0CE0101960E946408CE010196E1
:1006A0000E94A90823E730E0261B370B309309018D
:1006B00020930801CE0101960E94D10665E070E00A
:1006C00080E090E00E9487056BE371E0CE01019627
:1006D0000E943F0765E971E0CE0101960E94EF0795
:1006E000BC0187EB91E00E945706CE0101960E9463
:1006F000D10627E030E040E050E069E871E0CE014B
:1007000001960E94640863E371E0CE0101960E94A5
:100710004508882319F01091800101C010E0CE0136
:1007200001960E94D1061123A9F129E030E047E0AB
:1007300050E069E871E0CE0101960E946408CE01A4
:1007400001960E94A90823E730E0261B370B30935F
:10075000090120930801CE0101960E94D10665E0AF
:1007600070E080E090E00E9487056AE471E0CE01CD
:1007700001960E943F0769E871E0CE0101960E9450
:10078000EF07BC0187EB91E00E945706CE0101966E
:100790000E94D1062C960FB6F894DEBF0FBECDBFD7
:1007A000DF91CF911F91089508951F920F920FB678
:1007B0000F9211242F933F934F935F936F937F93E7
:1007C0008F939F93AF93BF93EF93FF93E0910C01AF
:1007D000F0910D010995FF91EF91BF91AF919F911C
:1007E0008F917F916F915F914F913F912F910F90DA
:1007F0000FBE0F901F9018958230E8F4E82FF0E0BC
:10080000EE0FFF1FE655FE4F71836083813041F08C
:10081000809169008C7F842B80936900E89A089509
:1008200080916900440F551F440F551F837F842B0F
:1008300080936900E99A08951F920F920FB60F9264
:1008400011242F933F934F935F936F937F938F93D5
:100850009F93AF93BF93EF93FF938091AA019091E1
:10086000AB01892B29F0E091AA01F091AB01099528
:10087000FF91EF91BF91AF919F918F917F916F9178
:100880005F914F913F912F910F900FBE0F901F904E
:1008900018951F920F920FB60F9211242F933F932A
:1008A0004F935F936F937F938F939F93AF93BF9378
:1008B000EF93FF938091AC019091AD01892B29F0CA
:1008C000E091AC01F091AD010995FF91EF91BF91DD
:1008D000AF919F918F917F916F915F914F913F91D8
:1008E0002F910F900FBE0F901F901895833081F0BD
:1008F00028F4813099F08230A1F008958730A9F072
:100900008830B9F08430D1F4809180008F7D03C0AD
:10091000809180008F7780938000089584B58F77D1
:1009200002C084B58F7D84BD08958091B0008F771B
:1009300003C08091B0008F7D8093B0000895CF9365
:10094000DF9390E0FC01E458FF4F2491FC01E05755
:10095000FF4F8491882349F190E0880F991FFC0193
:10096000E255FF4FA591B4918C559F4FFC01C59165
:10097000D4919FB7611108C0F8948C91209582237F
:100980008C93888182230AC0623051F4F8948C9150
:10099000322F309583238C938881822B888304C0E7
:1009A000F8948C91822B8C939FBFDF91CF91089507
:1009B0000F931F93CF93DF931F92CDB7DEB7282FEE
:1009C00030E0F901E859FF4F8491F901E458FF4FF5
:1009D0001491F901E057FF4F04910023C9F08823D7
:1009E00021F069830E9476046981E02FF0E0EE0F28
:1009F000FF1FEC55FF4FA591B4919FB7F8948C91D0
:100A0000611103C01095812301C0812B8C939FBF7E
:100A10000F90DF91CF911F910F9108951F920F9228
:100A20000FB60F9211242F933F938F939F93AF9301
:100A3000BF938091AF019091B001A091B101B091AD
:100A4000B2013091AE0123E0230F2D3720F401963F
:100A5000A11DB11D05C026E8230F0296A11DB11DE1
:100A60002093AE018093AF019093B001A093B101A8
:100A7000B093B2018091B3019091B401A091B501FE
:100A8000B091B6010196A11DB11D8093B301909361
:100A9000B401A093B501B093B601BF91AF919F91FE
:100AA0008F913F912F910F900FBE0F901F9018952F
:100AB0002FB7F8946091AF017091B0018091B101AE
:100AC0009091B2012FBF08953FB7F8948091B30180
:100AD0009091B401A091B501B091B60126B5A89B43
:100AE00005C02F3F19F00196A11DB11D3FBF66271C
:100AF000782F892F9A2F620F711D811D911D42E061
:100B0000660F771F881F991F4A95D1F70895CF92D6
:100B1000DF92EF92FF92CF93DF936B017C010E94F3
:100B20006405EB01C114D104E104F10489F00E94D1
:100B3000AE0A0E9464056C1B7D0B683E734090F307
:100B400081E0C81AD108E108F108C851DC4FEACFAA
:100B5000DF91CF91FF90EF90DF90CF900895789440
:100B600084B5826084BD84B5816084BD85B58260B2
:100B700085BD85B5816085BDEEE6F0E08081816050
:100B80008083E1E8F0E01082808182608083808150
:100B900081608083E0E8F0E0808181608083E1EB28
:100BA000F0E0808184608083E0EBF0E08081816010
:100BB0008083EAE7F0E080818460808380818260C6
:100BC00080838081816080838081806880831092AF
:100BD000C10008958E3008F08E50877020910E016C
:100BE00090E4299F90011124822B80937C008091B6
:100BF0007A00806480937A0080917A0086FDFCCF31
:100C0000809178002091790090E0922B0895CF9206
:100C1000DF92EF92FF920F931F93CF93DF936C01BC
:100C20007A01EB01E60EF71E00E010E0CE15DF05BD
:100C300061F06991D601ED91FC910190F081E02D78
:100C4000C6010995080F191FF1CFC801DF91CF9197
:100C50001F910F91FF90EF90DF90CF900895611555
:100C6000710581F0DB010D900020E9F7AD014150E5
:100C70005109461B570BDC01ED91FC910280F38179
:100C8000E02D099480E090E00895DC01ED91FC9165
:100C9000DB0114964D915C9115976D917C910280CA
:100CA000F381E02D09946EE571E00C942F060F930B
:100CB0001F93CF93DF93EC010E9445068C01CE0178
:100CC0000E945306800F911FDF91CF911F910F91CA
:100CD00008950F931F93CF93DF93EC010E942F068B
:100CE0008C01CE010E945306800F911FDF91CF919E
:100CF0001F910F9108950F931F93CF93DF93EC01F2
:100D00000E945805688779878A879B87E881F981DF
:100D10000680F781E02DCE01099597FF15C00E944E
:100D20005805088519852A853B85601B710B820B48
:100D3000930B0C811D812E813F8160177107820703
:100D4000930720F38FEF9FEFDF91CF911F910F91CA
:100D50000895EF92FF920F931F93CF93DF93EC01CF
:100D60008B01E42E60E671E00E943F07C8010E94FB
:100D70007B06FF24E7FCF09497FD0BC08E159F05C2
:100D800041F0682FCE010E94DC07C8010E947B065B
:100D9000F3CFCE01DF91CF911F910F91FF90EF9094
:100DA0000895FC01808191810C94DA0CCF93DF933C
:100DB000EC0188819981009711F00E94DA0C198268
:100DC00018821D821C821B821A82DF91CF910895A6
:100DD0000F931F93CF93DF93EC018B016F5F7F4FD6
:100DE000888199810E94690D009731F099838883E9
:100DF0001B830A8381E001C080E0DF91CF911F91C6
:100E00000F910895CF93DF93EC0188819981892B0D
:100E100029F08A819B818617970760F4CE010E9492
:100E2000E806882341F08C819D81892B19F4E881A3
:100E3000F981108281E0DF91CF910895EF92FF92C6
:100E40000F931F93CF93DF93EC017B018A01BA01CB
:100E50000E940207811104C0CE010E94D60607C07D
:100E60001D830C83B701888199810E946C0ECE018D
:100E7000DF91CF911F910F91FF90EF900895FC01AA
:100E800011821082138212821582148261157105FB
:100E900059F0FB0101900020E9F7AF0141505109E1
:100EA000461B570B0C941E070895CF93DF93EC015C
:100EB000FB018617970761F06081718161157105EB
:100EC00029F0448155810E941E0702C00E94D60667
:100ED000CE01DF91CF910895CF93DF93EC0161159F
:100EE000710561F0FB0101900020E9F7AF0141506D
:100EF0005109461B570B0E941E0702C00E94D606CE
:100F0000CE01DF91CF9108950F931F93CF93DF937D
:100F1000CDB7DEB762970FB6F894DEBF0FBECDBF78
:100F20008C01CB01F801118210821382128215828A
:100F3000148250E0BE016F5F7F4F0E94730EBE01AE
:100F40006F5F7F4FC8010E946C0762960FB6F894DE
:100F5000DEBF0FBECDBFDF91CF911F910F910895DE
:100F6000EF92FF920F931F93CF93DF93EC017B01DE
:100F70000C811D816115710511F480E016C04115C9
:100F8000510591F0040F151FB8010E940207882334
:100F9000A1F3288139818C819D81B701820F931F34
:100FA0000E946C0E1D830C8381E0DF91CF911F9115
:100FB0000F91FF90EF900895CF93DF9300D0CDB7BE
:100FC000DEB769831A8241E050E0BE016F5F7F4F58
:100FD0000E94B0070F900F90DF91CF910895CF93AB
:100FE000DF93EC01FB0144815581608171810E9496
:100FF000B007811103C0CE010E94D606CE01DF9159
:10100000CF910895CF93DF93DC01ED91FC91EB013B
:10101000A881B981309711F01097C9F4109759F051
:10102000EB012C813D81232B31F08C9190E0919547
:101030008195910914C0309781F0DC0114968D914F
:101040009C911597892B49F0808190E008C0BD01E3
:10105000CF01DF91CF910C94630E80E090E0DF919F
:10106000CF910895FC0144815581FB012481358194
:101070004217530741F40E94020821E0892B09F02E
:1010800020E0822F089580E00895FC0124813581BD
:10109000232B31F421E061157105A1F0FB0108C09B
:1010A000FC01808191816115710531F421E0FC0121
:1010B0008081882339F005C00E94630E21E0892BCE
:1010C00009F020E0822F0895BF92CF92DF92EF9235
:1010D000FF920F931F93CF93DF936C017B01EA0183
:1010E00089012417350720F48D2FE901042F182FCB
:1010F00060E671E0C6010E943F07D70114968D910A
:101100009C911597C817D907C8F48017910708F460
:101110008C01D701ED91FC911197E00FF11FB08088
:1011200010826D917C916C0F7D1FC6010E946C072F
:10113000D701ED91FC91E00FF11FB082C601DF9164
:10114000CF911F910F91FF90EF90DF90CF90BF90C4
:101150000895FC0180819181009711F00C94330E69
:1011600060E070E0CB0108951F920F920FB60F92CE
:1011700011242F938F939F93EF93FF93E091C701D7
:10118000F091C8018081E091CD01F091CE0182FD06
:1011900012C090818091D0018F5F8F732091D10117
:1011A000821751F0E091D001F0E0E954FE4F958FA5
:1011B0008093D00101C08081FF91EF919F918F9129
:1011C0002F910F900FBE0F901F9018951F920F92A6
:1011D0000FB60F9211242F933F934F935F936F930A
:1011E0007F938F939F93AF93BF93EF93FF9387EB7F
:1011F00091E00E949409FF91EF91BF91AF919F916F
:101200008F917F916F915F914F913F912F910F90AF
:101210000FBE0F901F90189587EB91E00E9459091F
:1012200021E0892B09F420E0822F08951092BA0161
:101230001092B90188EE93E0A0E0B0E08093BB018A
:101240009093BC01A093BD01B093BE0183E791E0F0
:101250009093B8018093B70185EC90E09093C4011E
:101260008093C30184EC90E09093C6018093C50104
:1012700080EC90E09093C8018093C70181EC90E0EE
:101280009093CA018093C90182EC90E09093CC01C5
:101290008093CB0186EC90E09093CE018093CD01BA
:1012A0001092D0011092D1011092D2011092D3016C
:1012B0000895FC01818D228D90E0805C9F4F821B00
:1012C00091098F7399270895FC01918D828D98174C
:1012D00031F0828DE80FF11D858D90E008958FEF3C
:1012E0009FEF0895FC01918D828D981761F0828D9A
:1012F000DF01A80FB11D5D968C91928D9F5F9F734A
:10130000928F90E008958FEF9FEF08958CE099E021
:10131000892B49F080E090E0892B29F00E940C098C
:1013200081110C9400000895FC01848DDF01A80F49
:10133000B11DA35ABF4F2C91848D90E001968F73FD
:101340009927848FA689B7892C93A089B1898C911C
:1013500080648C93938D848D981306C00288F389E2
:10136000E02D80818F7D80830895CF93DF93EC0102
:10137000888D8823C9F0EA89FB89808185FD05C0B5
:10138000A889B9898C9186FD0FC00FB607FCF5CFEF
:10139000808185FFF2CFA889B9898C9185FFEDCF37
:1013A000CE010E949409E7CFDF91CF910895CF92AB
:1013B000DF92FF920F931F93CF93DF931F92CDB7CE
:1013C000DEB76C0181E0D60158968C9358975B96F6
:1013D0009C915B975C968C915C97981307C0509694
:1013E000ED91FC915197808185FD2EC0F601038D12
:1013F00010E00F5F1F4F0F731127F02EF601848D41
:10140000F81211C00FB607FCF9CFD6015096ED9136
:10141000FC915197808185FFF1CFC60169830E94BD
:1014200094096981EBCF838DE80FF11DE35AFF4FDB
:101430006083D6015B960C935B975296ED91FC917D
:101440005397808180620CC0D6015696ED91FC9135
:10145000579760835096ED91FC91519780818064FD
:10146000808381E090E00F90DF91CF911F910F91E9
:10147000FF90DF90CF900895BF92CF92DF92EF92CE
:10148000FF92CF93DF93EC016A017B01B22EE889D2
:10149000F98982E08083411581EE58076105710565
:1014A000A1F060E079E08DE390E0A70196010E9451
:1014B000E70B215031094109510956954795379558
:1014C0002795211580E1380798F0E889F98910827D
:1014D00060E874E88EE190E0A70196010E94E70BB6
:1014E000215031094109510956954795379527955E
:1014F000EC85FD853083EE85FF852083188EEC8991
:10150000FD89B082EA89FB89808180618083EA89D4
:10151000FB89808188608083EA89FB89808180687B
:101520008083EA89FB8980818F7D8083DF91CF91E1
:10153000FF90EF90DF90CF90BF90089508950E94A4
:10154000AF050E949E0A0E94CC00C6E8D9E00E9426
:10155000F0012097E1F30E948609F9CF08955058D1
:10156000BB27AA270ED0E5C0D6D030F0DBD020F0C4
:1015700031F49F3F11F41EF4CBC00EF4E095E7FB6D
:10158000C1C0E92FE7D080F3BA1762077307840759
:10159000950718F071F49EF5FFC00EF4E0950B2E40
:1015A000BA2FA02D0B01B90190010C01CA01A001B5
:1015B0001124FF27591B99F0593F50F4503E68F110
:1015C0001A16F040A22F232F342F4427585FF3CF51
:1015D000469537952795A795F0405395C9F77EF422
:1015E0001F16BA0B620B730B840BBAF09150A1F06B
:1015F000FF0FBB1F661F771F881FC2F70EC0BA0FF1
:10160000621F731F841F48F4879577956795B79578
:10161000F7959E3F08F0B3CF9395880F08F0992770
:10162000EE0F97958795089504D06894B111B5C0D1
:10163000089598D088F09F5790F0B92F9927B75107
:10164000A0F0D1F0660F771F881F991F1AF0BA9586
:10165000C9F712C0B13081F09FD0B1E008959CC0AD
:10166000672F782F8827B85F39F0B93FCCF386957C
:1016700077956795B395D9F73EF4909580957095D9
:1016800061957F4F8F4F9F4F0895E89409C097FB56
:101690003EF490958095709561957F4F8F4F9F4F49
:1016A0009923A9F0F92F96E9BB279395F69587958D
:1016B00077956795B795F111F8CFFAF4BB0F11F450
:1016C00060FF1BC06F5F7F4F8F4F9F4F16C08823F7
:1016D00011F096E911C0772321F09EE8872F762F2D
:1016E00005C0662371F096E8862F70E060E02AF06E
:1016F0009A95660F771F881FDAF7880F969587955A
:1017000097F9089597F99F6780E870E060E0089581
:101710009FEF80EC089500240A9416161706180609
:101720000906089500240A941216130614060506E5
:101730000895092E0394000C11F4882352F0BB0F76
:1017400040F4BF2B11F460FF04C06F5F7F4F8F4FD9
:101750009F4F089557FD9058440F551F59F05F3F14
:1017600071F04795880F97FB991F61F09F3F79F0C3
:1017700087950895121613061406551FF2CF469545
:10178000F1DF08C0161617061806991FF1CF8695C7
:101790007105610508940895E894BB2766277727AB
:1017A000CB0197F9089597FB072E16F4009407D004
:1017B00077FD09D00E94280C07FC05D03EF49095D7
:1017C00081959F4F0895709561957F4F0895A1E28F
:1017D0001A2EAA1BBB1BFD010DC0AA1FBB1FEE1FAB
:1017E000FF1FA217B307E407F50720F0A21BB30BF6
:1017F000E40BF50B661F771F881F991F1A9469F772
:1018000060957095809590959B01AC01BD01CF01CD
:101810000895052E97FB1EF400940E94200C57FD9E
:1018200007D00E94E70B07FC03D04EF40C94200C69
:1018300050954095309521953F4F4F4F5F4F0895FC
:1018400090958095709561957F4F8F4F9F4F08952C
:10185000AA1BBB1B51E107C0AA1FBB1FA617B707D6
:1018600010F0A61BB70B881F991F5A95A9F78095F2
:101870009095BC01CD010895EE0FFF1F0590F491E6
:10188000E02D0994CF93DF938230910510F482E02C
:1018900090E0E0915602F091570220E030E0A0E0A5
:1018A000B0E0309739F14081518148175907B8F0BD
:1018B0004817590771F482819381109729F0139684
:1018C0009C938E9312972CC090935702809356024C
:1018D00027C02115310531F04217530718F0A9012F
:1018E000DB0101C0EF019A01BD01DF010280F3813C
:1018F000E02DD7CF21153105F9F0281B390B243005
:10190000310580F48A819B816115710521F0FB010D
:101910009383828304C09093570280935602FE0102
:10192000329644C0FE01E20FF31F8193919322503F
:101930003109398328833AC02091540230915502ED
:10194000232B41F420910201309103013093550281
:10195000209354022091000130910101211531059D
:1019600041F42DB73EB74091040150910501241B6D
:10197000350BE0915402F0915502E217F307A0F401
:101980002E1B3F0B2817390778F0AC014E5F5F4FD5
:101990002417350748F04E0F5F1F509355024093B0
:1019A00054028193919302C0E0E0F0E0CF01DF9117
:1019B000CF910895CF93DF93009709F487C0FC017E
:1019C000329713821282C0915602D091570220970B
:1019D00081F420813181280F391F80915402909128
:1019E00055028217930779F5F0935502E09354025C
:1019F0006DC0DE0120E030E0AE17BF0750F4129654
:101A00004D915C9113979D014115510509F1DA0142
:101A1000F3CFB383A28340815181840F951F8A172E
:101A20009B0771F48D919C911197840F951F0296DD
:101A30009183808312968D919C91139793838283D7
:101A40002115310529F4F0935702E09356023EC068
:101A5000D9011396FC93EE9312974D915D91A40FCB
:101A6000B51FEA17FB0779F480819181840F951FD8
:101A70000296D90111969C938E938281938113963D
:101A80009C938E931297E0E0F0E08A819B8100970F
:101A900019F0FE01EC01F9CFCE01029628813981BF
:101AA000820F931F20915402309155022817390755
:101AB00069F4309729F4109257021092560202C02E
:101AC00013821282D0935502C0935402DF91CF91BA
:101AD0000895A0E0B0E0EFE6FDE00C94CC0EEC0140
:101AE000CB01209719F40E94420CB8C0FE01E60F0A
:101AF000F71F9E0122503109E217F30708F4ACC02A
:101B0000D9010D911C91119706171707B8F00530F0
:101B1000110508F49FC0A801445051094617570702
:101B200008F498C002501109061B170B019311937A
:101B30006D937C93CF010E94DA0C8CC05B01A01ADC
:101B4000B10A4E01800E911EA0915602B09157022B
:101B5000612C712C60E070E0109709F449C0A81561
:101B6000B905C9F5ED90FC901197670142E0C40EEC
:101B7000D11CCA14DB0478F147018A189B08640160
:101B800042E0C40ED11C1296BC9012971396AC91F1
:101B9000B5E0CB16D10440F0B282A383918280825B
:101BA000D9018D939C9309C00E5F1F4F0E0D1F1D11
:101BB000F90111830083EB2DFA2F6115710531F0C6
:101BC000DB011396FC93EE93129744C0F0935702F7
:101BD000E09356023FC06D917C911197661677068F
:101BE00008F43B01BD0112960D90BC91A02DB4CF1D
:101BF000609154027091550268157905E9F46816F0
:101C00007906D0F440910001509101014115510530
:101C100041F44DB75EB76091040170910501461B18
:101C2000570BE417F507C0F4F0935502E093540204
:101C3000F901918380830EC00E94420C7C010097C1
:101C400059F0A801BE010E945A0ECE010E94DA0C82
:101C5000C70104C0CE0102C080E090E0CDB7DEB77E
:101C6000EEE00C94E80E1F93FC0199278827BC0135
:101C7000E89411911032E9F3193010F01E30C8F3D6
:101C80001B3251F01D3249F4689406C00E94890E3F
:101C9000610F711D811D911D119110531A30B0F308
:101CA0003EF490958095709561957F4F8F4F9F4F33
:101CB0001F910895FB01DC0102C001900D9241507B
:101CC0005040D8F70895FB01DC018D9101908019F7
:101CD0000110D9F3990B0895FB01DC0101900D92DD
:101CE0000020E1F708954532510520F4423010F00C
:101CF0000C947E0EFB011082CB010895BB274A3065
:101D000031F4992322F4BDE2909581959F4F0C9474
:101D10009F0E592F482F372F262F660F771F881FAA
:101D2000991F660F771F881F991F620F731F841FEB
:101D3000951F660F771F881F991F0895BB27FB010A
:101D40005527AA27880F991FAA1FA41710F0A41BB4
:101D500083955051B9F7A05DAA3308F0A95DA1930E
:101D6000009779F7B111B1931192CB010C94B80E91
:101D7000DC01FC01672F71917723E1F7329704C0F2
:101D80007C916D9370836291AE17BF07C8F308957D
:101D90002F923F924F925F926F927F928F929F927B
:101DA000AF92BF92CF92DF92EF92FF920F931F9369
:101DB000CF93DF93CDB7DEB7CA1BDB0B0FB6F8941A
:101DC000DEBF0FBECDBF09942A88398848885F845A
:101DD0006E847D848C849B84AA84B984C884DF80CB
:101DE000EE80FD800C811B81AA81B981CE0FD11DAF
:101DF0000FB6F894DEBF0FBECDBFED01089510E021
:101E0000CCEBD0E004C0FE010E943E0C2296CE3BFB
:081E1000D107C9F7F894FFCFD8
:101E1800000058028000010073004B00D4030157F2
:101E28006946692D53696E676C65206368616E6EDB
:101E3800656C2032412D44696D6D657220626F6159
:101E480072640044696D6D65723A00556172742060
:101E580076616C756520746F2000526567756C61DA
:101E6800746F722076616C756520746F20000D0A9E
:101E7800006E616E00696E66006F7666002E000067
:101E8800000000D7090706590972096409B5090055
:00000001FF
