:100000000C945E000C941A050C94F3040C94860076
:100010000C9486000C9486000C9486000C94860048
:100020000C9486000C9486000C9486000C94860038
:100030000C9486000C9441050C9486000C94860068
:100040000C94A9040C9486000C9477040C9451042D
:100050000C9486000C9486000C9486000C94860008
:100060000C9486000C9486000000000024002700F9
:100070002A0000000000250028002B0004040404CE
:100080000404040402020202020203030303030342
:10009000010204081020408001020408102001021F
:1000A00004081020000000080002010000030407FB
:1000B000000000000000000068059E0811241FBE1B
:1000C000CFEFD8E0DEBFCDBF22E0A8E8B1E001C0AD
:1000D0001D92AC35B207E1F711E0A0E0B1E0E8E332
:1000E000FAE102C005900D92A838B107D9F710E0E7
:1000F000CDE5D0E004C02197FE010E94F40ACC3582
:10010000D107C9F70E94B2050C940F0D0C940000A2
:10011000ECEAF0E02491E8E9F0E09491E4E8F0E022
:10012000E491EE2309F43BC0222339F1233091F00E
:1001300038F42130A9F0223001F524B52F7D12C00A
:10014000273091F02830A1F02430B9F420918000BC
:100150002F7D03C0209180002F77209380000DC059
:1001600024B52F7724BD09C02091B0002F7703C09C
:100170002091B0002F7D2093B000F0E0EE0FFF1F24
:10018000EE58FF4FA591B4912FB7F894EC918111DF
:1001900003C090959E2301C09E2B9C932FBF089572
:1001A0002FB7F8948091990190919A01A0919B01A9
:1001B000B0919C012FBF8093A5019093A601A093BD
:1001C000A701B093A801E0919D01F0919E010284E6
:1001D000F385E02D8DE991E0099597FF26C02FB7B3
:1001E000F8948091990190919A01A0919B01B0910E
:1001F0009C012FBF4091A5015091A6016091A701DC
:100200007091A801841B950BA60BB70B4091A1011F
:100210005091A2016091A3017091A40184179507E8
:10022000A607B70780F28FEF9FEF089580E48093D1
:100230007C0080917A00806480937A0080917A00BB
:1002400086FDFCCF809178002091790090E0922B80
:100250000895089581E080938A0110928901109297
:10026000880180E00C948800CF92DF92EF92FF9299
:100270000F931F93CF93DF936C017A018B01C0E042
:10028000D0E0CE15DF0589F0D8016D918D01D60142
:10029000ED91FC910190F081E02DC6010995892B2B
:1002A00011F47E0102C02196ECCFC701DF91CF91FE
:1002B0001F910F91FF90EF90DF90CF9008950895D8
:1002C00080E090E00895FC01538D448D252F30E0AF
:1002D000842F90E0821B930B541710F0CF96089553
:1002E00001970895FC01918D828D981761F0828DA0
:1002F000DF01A80FB11D5D968C91928D9F5F9F735A
:10030000928F90E008958FEF9FEF0895FC01918DFB
:10031000828D981731F0828DE80FF11D858D90E068
:1003200008958FEF9FEF0895FC01918D228D892F05
:1003300090E0805C9F4F821B91098F7399270895ED
:100340008DE991E00E94940121E0892B09F420E0DD
:10035000822F0895FC01848DDF01A80FB11DA35ADF
:10036000BF4F2C91848D90E001968F739927848FD5
:10037000A689B7892C93A089B1898C9180648C93CC
:10038000938D848D981306C00288F389E02D8081B7
:100390008F7D80830895EF92FF920F931F93CF93E9
:1003A000DF93EC0181E0888F9B8D8C8D981305C0C5
:1003B000E889F989808185FD24C0F62E0B8D10E037
:1003C0000F5F1F4F0F731127E02E8C8DE8120CC0AA
:1003D0000FB607FCFACFE889F989808185FFF5CF50
:1003E000CE010E94AA01F1CF8B8DFE01E80FF11D15
:1003F000E35AFF4FF0820B8FEA89FB89808180628C
:1004000007C0EE89FF896083E889F989808180646B
:10041000808381E090E0DF91CF911F910F91FF9059
:10042000EF900895CF93DF93EC01888D8823C9F076
:10043000EA89FB89808185FD05C0A889B9898C91ED
:1004400086FD0FC00FB607FCF5CF808185FFF2CF88
:10045000A889B9898C9185FFEDCFCE010E94AA01B0
:10046000E7CFDF91CF91089580E090E0892B29F0CC
:100470000E94A00181110C94000008953FB7F894E8
:1004800080918C0190918D01A0918E01B0918F018E
:1004900026B5A89B05C02F3F19F00196A11DB11DDF
:1004A0003FBFBA2FA92F982F8827820F911DA11D1A
:1004B000B11DBC01CD0142E0660F771F881F991F57
:1004C0004A95D1F708958F929F92AF92BF92CF92A3
:1004D000DF92EF92FF920E943E024B015C0185E0A9
:1004E000C82ED12CE12CF12C0E943E02DC01CB0164
:1004F00088199909AA09BB09883E9340A105B1054D
:1005000058F021E0C21AD108E108F10888EE880EFF
:1005100083E0981EA11CB11CC114D104E104F104B4
:1005200019F7FF90EF90DF90CF90BF90AF909F9022
:100530008F9008950895089580918A018823F1F09D
:1005400020918801309189018091060190910701E5
:100550002817390754F081E00E9488001092890121
:100560001092880110928A010895809188019091DB
:100570008901019690938901809388010895CF9312
:10058000DF93009779F0FC0101900020E9F73197A3
:10059000AF01481B590BBC018DE991E00E94340169
:1005A000EC0102C0C0E0D0E042E050E062E271E065
:1005B0008DE991E00E9434018C0F9D1FDF91CF9156
:1005C0000895CF93DF93FC0144815581608171814F
:1005D0008DE991E00E943401EC0142E050E062E2DA
:1005E00071E08DE991E00E9434018C0F9D1FDF9135
:1005F000CF910895FC0124813581232B49F065E2D8
:1006000071E0808191810E94FF0C21E0892B09F02B
:1006100020E0822F0895FC0124813581FB01448173
:1006200055812417350721F5FC0180819181FB015B
:1006300060817181009719F061157105A1F4611550
:10064000710549F0232BB1F0FB01808190E0919579
:10065000819591090AC0009769F0232B59F0FC019C
:10066000808190E002C00E94FF0C21E0892B19F0EC
:1006700020E001C021E0822F0895CF93DF93EC01A9
:1006800088819981009711F00E948F0B198218823E
:100690001D821C821B821A82DF91CF910895FC017A
:1006A000808191810C948F0B0E94F10C0F931F930A
:1006B000CF93DF93EC0188819981009729F02A81FB
:1006C0003B812617370788F48B016F5F7F4F0E94AD
:1006D000270C009761F0998388831B830A832C8100
:1006E0003D81232B11F4FC01108281E001C080E0E8
:1006F000DF91CF911F910F910895EF92FF920F9389
:100700001F93CF93DF93EC01FB0184819581E080FF
:10071000F1800C811D81E114F104B1F00097B9F072
:10072000080F191FB801CE010E945603882361F0FB
:10073000288139818C819D81B701820F931F0E948E
:10074000080D1D830C8303C0CE010E943D03CE0122
:10075000DF91CF911F910F91FF90EF900895EF924D
:10076000FF920F931F93CF93DF93EC017B018A01DC
:10077000BA010E945603811104C0CE010E943D03BC
:1007800007C01D830C83B701888199810E94080DE1
:10079000CE01DF91CF911F910F91FF90EF900895BF
:1007A000CF93DF93EC01FB018617970761F060811F
:1007B00071816115710529F0448155810E94AF0353
:1007C00002C00E943D03CE01DF91CF910895FC014C
:1007D00011821082138212821582148261157105B2
:1007E00051F0FB0101900020E9F73197AF01461B62
:1007F000570B0C94AF030895BF92CF92DF92EF9204
:10080000FF920F931F93CF93DF937C016B01EA015B
:1008100089012417350720F48D2FE901042F182FA3
:1008200064E271E0C7010E94E703D60114968D913E
:100830009C911597C817D90748F58017910708F4B8
:100840008C01D601ED91FC911197E00FF11FB08062
:1008500010824D915C91BA016C0F7D1F611571057D
:1008600061F0FB0101900020E9F73197AF01461BD1
:10087000570BC7010E94AF0303C0C7010E943D038D
:10088000D601ED91FC91E00FF11FB082C701DF911D
:10089000CF911F910F91FF90EF90DF90CF90BF907D
:1008A00008951F920F920FB60F9211242F933F932A
:1008B0004F935F936F937F938F939F93AF93BF9368
:1008C000EF93FF938DE991E00E94AA01FF91EF91D0
:1008D000BF91AF919F918F917F916F915F914F9158
:1008E0003F912F910F900FBE0F901F9018951F9260
:1008F0000F920FB60F9211242F938F939F93EF9324
:10090000FF93E091AD01F091AE018081E091B301E0
:10091000F091B40182FD12C090818091B6018F5F89
:100920008F732091B701821751F0E091B601F0E08A
:10093000E356FE4F958F8093B60101C08081FF91F1
:10094000EF919F918F912F910F900FBE0F901F905D
:1009500018951F920F920FB60F9211242F933F9369
:100960008F939F93AF93BF938091990190919A0138
:10097000A0919B01B0919C0130918B0123E0230F4A
:100980002D3720F40196A11DB11D05C026E8230FC7
:100990000296A11DB11D20938B0180939901909324
:1009A0009A01A0939B01B0939C0180918C0190913E
:1009B0008D01A0918E01B0918F010196A11DB11DF5
:1009C00080938C0190938D01A0938E01B0938F0141
:1009D000BF91AF919F918F913F912F910F900FBE3B
:1009E0000F901F9018951F920F920FB60F9211241F
:1009F0002F933F934F935F936F937F938F939F9327
:100A0000AF93BF93EF93FF93E0910201F091030145
:100A10000995FF91EF91BF91AF919F918F917F9138
:100A20006F915F914F913F912F910F900FBE0F905B
:100A30001F9018951F920F920FB60F9211242F93AB
:100A40003F934F935F936F937F938F939F93AF9356
:100A5000BF93EF93FF93E0910001F091010109959D
:100A6000FF91EF91BF91AF919F918F917F916F9186
:100A70005F914F913F912F910F900FBE0F901F905C
:100A800018951F920F920FB60F9211242F933F9338
:100A90004F935F936F937F938F939F93AF93BF9386
:100AA000EF93FF93E0910401F09105010995FF9107
:100AB000EF91BF91AF919F918F917F916F915F91D6
:100AC0004F913F912F910F900FBE0F901F9018954F
:100AD000EDE9F1E01382128288EE93E0A0E0B0E04D
:100AE00084839583A683B78384E191E09183808397
:100AF00085EC90E09587848784EC90E097878687E3
:100B000080EC90E0918B808B81EC90E0938B828BDA
:100B100082EC90E0958B848B86EC90E0978B868BB3
:100B2000118E128E138E148E64E271E082E592E0D3
:100B30000E94E70364E271E08CE492E00E94E70324
:100B400064E271E086E492E00E94E70364E271E00F
:100B500080E492E00E94E70364E271E08AE392E0BD
:100B60000C94E703CF93DF93CDB7DEB768970FB64A
:100B7000F894DEBF0FBECDBF789484B5826084BD8B
:100B800084B5816084BD85B5826085BD85B5816091
:100B900085BD80916E00816080936E00109281000F
:100BA00080918100826080938100809181008160CA
:100BB000809381008091800081608093800080918B
:100BC000B10084608093B1008091B0008160809317
:100BD000B00080917A00846080937A0080917A00DE
:100BE000826080937A0080917A00816080937A009D
:100BF00080917A00806880937A001092C100E09121
:100C0000AD01F091AE0182E08083E091A901F09105
:100C1000AA011082E091AB01F091AC0180E18083E8
:100C20001092B501E091B101F091B20186E08083AC
:100C3000E091AF01F091B001808180618083E0910B
:100C4000AF01F091B001808188608083E091AF01B5
:100C5000F091B001808180688083E091AF01F091D4
:100C6000B00180818F7D80838DE291E00E94BF0280
:100C700081E591E00E94BF02E8E9F0E02491E4E818
:100C8000F0E08491882399F090E0880F991FFC018F
:100C9000E859FF4FA591B491FC01EE58FF4F8591A3
:100CA00094918FB7F894EC91E22BEC938FBF8AE28A
:100CB00091E09093010180930001809169008C7F05
:100CC000816080936900E89A80E1809381001092AE
:100CD000800021E088EA92E090938700809386006C
:100CE00031E13093810020939201909391018093A0
:100CF00090019093870080938600309381008CE967
:100D000092E0909305018093040120936F0087E3A4
:100D1000882E912C9AE0F92E8E010F5F1F4F24E64A
:100D2000C22ED12C3AE0432E512C612C712CEE2492
:100D3000E3940E9416018A3C9F4F94F00E94160192
:100D4000B4010E948B0A072E000C880B990B0E949D
:100D5000250920E030E040E05FE30E94E90911C08E
:100D60000E941601B4010E948B0A072E000C880B0A
:100D7000990B0E94250920E030E040E05FE30E94EB
:100D8000E8090E94550AF69E9001F79E300D112445
:100D90003093980120939701809197019091980149
:100DA0002091950130919601820F931F90939601A7
:100DB000809395018091080190910901019690938B
:100DC00009018093080180910801909109018436FE
:100DD00091050CF47AC080919501909196018D391E
:100DE0009F4FD4F08091950190919601B6010E9499
:100DF0008B0ACB01F89EB001F99E700D1124072ECD
:100E0000000C880B990B0E94250920E030E040E09F
:100E10005FE30E94E90919C08091950190919601C4
:100E2000B6010E948B0ACB01F89EB001F99E700DAD
:100E30001124072E000C880B990B0E94250920E035
:100E400030E040E05FE30E94E8090E94550AA301F8
:100E500092010E949F0A3093960120939501809100
:100E60009501909196011C8A1B8A1E8A1D8A188EF4
:100E70001F8A4AE0B8010E94D908F80101900020B9
:100E8000E9F73197AF01401B510BB801CE014396F2
:100E90000E94AF0365E271E0C8010E94E703BE0152
:100EA0006D5E7F4FC8010E947D03BC0180E492E02B
:100EB0000E94D003C8010E944F03CE0143960E94B6
:100EC0004F0310920901109208016AE372E080E476
:100ED00092E00E940B03811109C060E472E08AE392
:100EE00092E00E94D003E092940102C0109294011B
:100EF0008DE991E00E949401181619060CF075C056
:100F000064E271E0C8010E94E7030E94D00097FDEF
:100F10001EC08A309105D9F08B8B1C8AAD80BE80B3
:100F20008FEFA81AB80AB501C8010E94560388239A
:100F300061F329813A818D819E81BE016D5E7F4F73
:100F4000820F931F0E94080DBE82AD82DECF80917A
:100F5000520290915302009789F069817A8161155C
:100F6000710551F040915402509155022D813E81FE
:100F70004217530708F0D9C00E948F0B89819A81CC
:100F800090935302809352028B819C8190935502DF
:100F9000809354028D819E819093570280935602D4
:100FA0001A8219821C821B821E821D82C8010E9425
:100FB0004F0382E592E00E94E10227E030E040E04A
:100FC00050E062E572E0C8010E94FC03C8010E9483
:100FD000FA02B82EC8010E944F03BB2031F062E52F
:100FE00072E08CE492E00E94D00366E472E08CE44C
:100FF00092E00E940B03811109C06CE472E086E468
:1010000092E00E94D003E092930102C010929301FB
:1010100027E030E040E050E066E472E0C8010E9462
:10102000FC03C8010E94FA02882319F0B0909301D2
:1010300001C0B12CC8010E944F03BB2071F129E00F
:1010400030E047E050E066E472E0C8010E94FC0333
:1010500089819A81009719F00E94B20803C060E06C
:1010600070E0CB01C601861B970B9093070180931C
:101070000601C8010E944F030E94630264E671E00A
:10108000C8010E94E70366E472E0C8010E947D0384
:101090000E94E102C8010E944F0327E030E040E0D7
:1010A00050E06AE372E0C8010E94FC03C8010E949C
:1010B000FA02882319F0B090940101C0B12CC80144
:1010C0000E944F03BB2071F129E030E047E050E07F
:1010D0006AE372E0C8010E94FC0389819A8100974B
:1010E00019F00E94B20803C060E070E0CB01C601B5
:1010F000861B970B9093070180930601C8010E94FD
:101100004F030E94630263E771E0C8010E94E70396
:101110006AE372E0C8010E947D030E94E102C801F7
:101120000E944F030E94340204CE0E94080D8D815C
:101130009E81909357028093560236CF8AE392E0C5
:101140000E944F0380E492E00E944F0386E492E005
:101150000E944F038CE492E00E944F0382E592E0EC
:101160000C944F031F93FC0199278827BC01E89436
:1011700011911032E9F3193010F01E30C8F31B3210
:1011800051F01D3249F4689406C00E94E408610FD2
:10119000711D811D911D119110531A30B0F33EF451
:1011A00090958095709561957F4F8F4F9F4F1F91C0
:1011B0000895BB274A3031F4992322F4BDE290957B
:1011C00081959F4F0C94FA08592F482F372F262FBF
:1011D000660F771F881F991F660F771F881F991F3B
:1011E000620F731F841F951F660F771F881F991F3B
:1011F0000895BB27FB015527AA27880F991FAA1F0F
:10120000A41710F0A41B83955051B9F7A05DAA3321
:1012100008F0A95DA193009779F7B111B1931192EC
:10122000CB010C941309DC01FC01672F719177232A
:10123000E1F7329704C07C916D9370836291AE1791
:10124000BF07C8F30895E89409C097FB3EF4909552
:101250008095709561957F4F8F4F9F4F9923A9F08F
:10126000F92F96E9BB279395F6958795779567951E
:10127000B795F111F8CFFAF4BB0F11F460FF1BC062
:101280006F5F7F4F8F4F9F4F16C0882311F096E9F5
:1012900011C0772321F09EE8872F762F05C06623A3
:1012A00071F096E8862F70E060E02AF09A95660F5C
:1012B000771F881FDAF7880F9695879597F9089515
:1012C00097F99F6780E870E060E008959FEF80ECF9
:1012D000089500240A94161617061806090608959C
:1012E00000240A9412161306140605060895092E02
:1012F0000394000C11F4882352F0BB0F40F4BF2B71
:1013000011F460FF04C06F5F7F4F8F4F9F4F0895B0
:1013100057FD9058440F551F59F05F3F71F04795A6
:10132000880F97FB991F61F09F3F79F0879508958B
:10133000121613061406551FF2CF4695F1DF08C0AA
:10134000161617061806991FF1CF869571056105C7
:1013500008940895E894BB2766277727CB0197F96F
:1013600008952F923F924F925F926F927F928F9249
:101370009F92AF92BF92CF92DF92EF92FF920F9324
:101380001F93CF93DF93CDB7DEB7CA1BDB0B0FB62E
:10139000F894DEBF0FBECDBF09942A8839884888EB
:1013A0005F846E847D848C849B84AA84B984C88481
:1013B000DF80EE80FD800C811B81AA81B981CE0F78
:1013C000D11D0FB6F894DEBF0FBECDBFED0108955D
:1013D0005058BB27AA270E94000A0C9477090E9444
:1013E000690938F00E94700920F039F49F3F19F420
:1013F00026F40C9466090EF4E095E7FB0C94600962
:10140000E92F0E94880958F3BA1762077307840707
:10141000950720F079F4A6F50C94AA090EF4E0954E
:101420000B2EBA2FA02D0B01B90190010C01CA019E
:10143000A0011124FF27591B99F0593F50F4503E49
:1014400068F11A16F040A22F232F342F4427585F3B
:10145000F3CF469537952795A795F0405395C9F753
:101460007EF41F16BA0B620B730B840BBAF091500B
:10147000A1F0FF0FBB1F661F771F881FC2F70EC0AA
:10148000BA0F621F731F841F48F48795779567957D
:10149000B795F7959E3F08F0B0CF9395880F08F069
:1014A0009927EE0F9795879508950E945C0A689496
:1014B000B1110C94AB0908950E94900988F09F57D0
:1014C00098F0B92F9927B751B0F0E1F0660F771F68
:1014D000881F991F1AF0BA95C9F714C0B13091F05E
:1014E0000E94AA09B1E008950C94AA09672F782FE9
:1014F0008827B85F39F0B93FCCF386957795679523
:10150000B395D9F73EF490958095709561957F4F8E
:101510008F4F9F4F089597FB072E16F4009407D026
:1015200077FD09D00E94BE0A07FC05D03EF49095D5
:1015300081959F4F0895709561957F4F0895052E71
:1015400097FB1EF400940E94B60A57FD07D00E9434
:10155000D20A07FC03D04EF40C94B60A509540957D
:10156000309521953F4F4F4F5F4F0895909580954F
:10157000709561957F4F8F4F9F4F0895AA1BBB1B9E
:1015800051E107C0AA1FBB1FA617B70710F0A61B83
:10159000B70B881F991F5A95A9F780959095BC01A4
:1015A000CD010895A1E21A2EAA1BBB1BFD010DC09F
:1015B000AA1FBB1FEE1FFF1FA217B307E407F50703
:1015C00020F0A21BB30BE40BF50B661F771F881FDF
:1015D000991F1A9469F760957095809590959B0175
:1015E000AC01BD01CF010895EE0FFF1F0590F491EE
:1015F000E02D0994CF93DF938230910510F482E0BF
:1016000090E0E0915A02F0915B0220E030E0C0E00F
:10161000D0E0309711F14081518148175907C0F04F
:101620004817590761F482819381209719F09B83B1
:101630008A832BC090935B0280935A0226C02115A7
:10164000310519F04217530718F49A01BE01DF0162
:10165000EF010280F381E02DDCCF2115310509F186
:10166000281B390B2430310590F412968D919C91F2
:1016700013976115710521F0FB019383828304C0E8
:1016800090935B0280935A02FD01329644C0FD01A3
:10169000E20FF31F81939193225031092D933C93D4
:1016A0003AC02091580230915902232B41F42091E5
:1016B0000C0130910D013093590220935802209172
:1016C0000A0130910B012115310541F42DB73EB7C8
:1016D00040910E0150910F01241B350BE0915802EF
:1016E000F0915902E217F307A0F42E1B3F0B2817C5
:1016F000390778F0AC014E5F5F4F2417350748F08B
:101700004E0F5F1F5093590240935802819391935B
:1017100002C0E0E0F0E0CF01DF91CF9108950F9398
:101720001F93CF93DF93009709F48CC0FC0132978D
:101730001382128200915A0210915B020115110569
:1017400081F420813181820F931F209158023091C2
:1017500059022817390779F5F0935902E093580296
:1017600071C0D80140E050E0AE17BF0750F41296A8
:101770002D913C911397AD012115310509F1D90146
:10178000F3CF9D01DA013383228360817181860F5B
:10179000971F8217930769F4EC0128813981260F7E
:1017A000371F2E5F3F4F318320838A819B81938334
:1017B0008283452B29F4F0935B02E0935A0242C0E6
:1017C0001396FC93EE931297ED01499159919E0166
:1017D000240F351FE217F30771F480819181840F84
:1017E000951F029611969C938E93828193811396F6
:1017F0009C938E931297E0E0F0E0D80112968D91C1
:101800009C911397009719F0F8018C01F6CF8D91F8
:101810009C9198012E5F3F4F820F931F2091580299
:10182000309159022817390769F4309729F410923A
:101830005B0210925A0202C0138212821093590264
:1018400000935802DF91CF911F910F910895A0E06E
:10185000B0E0EDE2FCE00C94B509EC01009721F456
:10186000CB010E94FA0AB8C0FC01E60FF71F9C01E9
:1018700022503109E217F30708F4ACC0D9010D91E9
:101880001C91119706171707B0F00530110508F4E1
:101890009FC0C80104978617970708F499C00250A3
:1018A0001109061B170B019311936D937C93CF01C4
:1018B0000E948F0B8DC05B01A01AB10A4C01800EF3
:1018C000911EA0915A02B0915B0240E050E0E12CE1
:1018D000F12C109709F44AC0A815B905D1F56D90FF
:1018E0007C901197630182E0C80ED11CCA14DB04FE
:1018F00080F1A3014A195B096A0182E0C80ED11C7C
:101900001296BC9012971396AC91B5E0CB16D10409
:1019100040F0B282A38351834083D9016D937C93BD
:101920000AC00E5F1F4FC301800F911FF901918301
:101930008083EB2DFA2FE114F10431F0D7011396D7
:10194000FC93EE93129744C0F0935B02E0935A022B
:101950003FC08D919C9111974817590708F4AC012D
:101960007D0112960D90BC91A02DB3CF80915802AD
:101970009091590288159905E1F446175707C8F464
:1019800080910A0190910B01009741F48DB79EB7A9
:1019900040910E0150910F01841B950BE817F90738
:1019A000C8F4F0935902E0935802F90171836083FF
:1019B0000FC0CB010E94FA0A7C01009759F0A801E0
:1019C000BE010E94F60CCE010E948F0BC70104C01D
:1019D000CE0102C080E090E0CDB7DEB7EEE00C941F
:1019E000D10981E090E0F8940C940F0DFB01DC012B
:1019F00002C001900D9241505040D8F70895FB016C
:101A0000DC018D91019080190110D9F3990B089593
:101A1000FB01DC0101900D920020E1F7089510E038
:101A2000CDE5D0E004C0FE010E94F40A2196CE3537
:081A3000D107C9F7F894FFCFBC
:101A38009A029A029B026400010000005C02800086
:101A480000000000CB01340163011202940172010D
:101A580086010D0A0044696D6D65723A0057694642
:101A6800692D53696E676C65206368616E6E656C7D
:101A78002032412D44696D6D657220626F61726418
:101A8800004656657220302E34202C485665722048
:101A9800302E3200556172742076616C7565207441
:101AA8006F2000526567756C61746F722076616C87
:081AB800756520746F20000029
:00000001FF
